:020000040800F2
:10000000C80B00208D02000885670008055A00080B
:1000100000000000000000000000000000000000E0
:1000200000000000000000000000000095770008BC
:1000300000000000000000004975000897770008E4
:100040009F020008000000009F0200089F020008B5
:100050009F0200089F0200089F0200089F020008FC
:10006000000000009F0200089F0200089F02000895
:100070009F0200089F0200089F0200080000000085
:100080009F0200089F020008000000009F02000875
:100090009F0200089F0200089F0200089F020008BC
:1000A000095A00089F0200089F020008357E0008D8
:1000B0009F02000800F002F800F0BDF80CA030C864
:1000C000083824182D18A246671EAB4654465D46D4
:1000D000AC4201D100F0AFF87E460F3E0FCCB646E1
:1000E0000126334200D0FB1AA246AB4633431847E1
:1000F0009C880000BC880000103A02D378C878C100
:10010000FAD8520701D330C830C101D504680C6059
:10011000704700000023002400250026103A01D378
:1001200078C1FBD8520700D330C100D50B607047AF
:1001300010B56E2902D101F0E9F910BD702902D184
:1001400001F02BFB10BD662902D108F0BFFA10BDEB
:10015000652902D108F0BAFA10BD672902D108F06A
:10016000B5FA10BD612902D108F0B8FA10BD0368D4
:100170001B0A01D380231943692902D101F090F9A8
:1001800010BD642902D101F08BF910BD752902D18F
:1001900001F086F910BD6F2902D101F0A9FA10BD56
:1001A000782902D101F0E6FA10BDE92902D101F067
:1001B00045FA10BDE42902D101F040FA10BDF5293D
:1001C00002D101F03BFA10BDEF2902D101F09CFAF7
:1001D00010BDF82902D101F0DBFA10BD0368DB097C
:1001E00001D380231943632902D102F0E4FA10BD40
:1001F000732902D102F0E7FA10BDE32902D102F01F
:10020000F1FA10BDF32902D102F0F4FA10BD00207A
:1002100010BD1FB501F08EFE04000020002108F083
:100220007DF8401C60600020002108F061F8E0606B
:100230001FBD10B510BD03F02FF81146FFF7E9FF01
:1002400007F072FF03F0D8FA03B4FFF7F2FF03BC24
:1002500003F070FB70B505460C46164602E00FCC65
:100260000FC5103E102EFAD2082E02D303CC03C5C0
:10027000083E042E07D301CC01C5361F03E02178C8
:100280002970641C6D1C761EF9D270BD074880472A
:1002900007480047FEE7FEE7FEE7FEE7FEE7FEE76A
:1002A00004480549054A064B7047000011780008CC
:1002B000B5000008C8050020C80B0020C8070020B2
:1002C000C8070020FEB5054610460C46184373D0FB
:1002D000AE468C460020AD1A01469C4167D3664667
:1002E000002701243D46B61A9D4102D313463A46E3
:1002F0002124654676462F04360C3E432D0CB61A53
:100300009D4104D3150C1B042B4312041034654685
:1003100076462F06360A3E432D0AB61A9D4104D36F
:10032000150E1B022B4312020834654676462F0732
:1003300036093E432D09B61A9D4104D3150F1B0102
:100340002B431201241D65467646AF07B6083E438F
:10035000AD08B61A9D4104D3950F9B002B43920024
:10036000A41C65467646EF0776083E436D08B61A2C
:100370009D411AD392185B41641C16E00018764622
:1003800065464941B71A9D410191009009D36046E5
:10039000B11A98418E468446009801990025401C68
:1003A0006941DD0752082A435B08641EE6D57246A0
:1003B000634603B0F0BDFFE700200146C046C046DB
:1003C0002A462346F5E700007CB51D4616460C007C
:1003D000009001D00019401E084B7B442A46694614
:1003E0000190304601F0ABF8002C054603D0694679
:1003F000002001F0B7F828467CBD000091110000F4
:100400000FB400B58DB010A909900B900020C04327
:1004100000910A9000200C90074878440690074805
:1004200078446A4607900F9909A801F01DFD0DB0A8
:1004300008BC04B0184700006F1A0000891A0000B9
:10044000FFB5144683B0002000260090506801904C
:1004500091699768049888470C990546069808435F
:1004600005D009E0A1690498761C88470546216AF1
:10047000284688470028F5D1681C03D00198C0079A
:1004800004D017E00020C04307B0F0BD2068011D74
:100490002160006800900DE00198C00704D1009829
:1004A00005700098401C0090A169761C04987F1E7E
:1004B00088470546002F1CDD681C1AD006980028C6
:1004C0000FD0E817C00E4019411140098A00069963
:1004D000400151182A1A0968012090400142DBD1DD
:1004E00007E00C980028D7D12846216A88470028C1
:1004F000D2D0E169049888470C98002807D1002ED3
:1005000005DD0198C00702D1009800210170A068A4
:10051000B84204DD0C98002804D0002F02D001203E
:10052000C043B1E73046AFE730B5441C03E0017883
:10053000401C00290DD08107F9D10B4BDD0104C807
:10054000D11A91432940FAD0001B0A0603D0C01EDD
:1005500030BD001B30BD0A0401D0801E30BD090231
:10056000FCD0401E30BD00000101010101E004C0CB
:10057000091F0429FBD28B0701D50280801CC90703
:1005800000D00270704700290BD0C30702D0027060
:10059000401C491E022904D3830702D50280801C17
:1005A000891EE3E70022EEE70022DFE7024670B58E
:1005B0000A4392072AD11E4DEE0104C808C9541BF4
:1005C0009443344017D0D0B2D9B2401A2106014327
:1005D00010D190B299B2401A210401430AD11002FD
:1005E0001902000A090A401A2102014302D1100E21
:1005F000190E401A70BD9A42DFD010BA19BA88425B
:1006000001D9012070BD0020C04370BD02780B7875
:10061000401C491C002A09D09A4207D102780B7865
:10062000401C491C002A01D09A42EFD0D01A70BD5C
:1006300001010101002203098B422CD3030A8B42E2
:1006400011D300239C464EE003460B433CD40022CA
:1006500043088B4231D303098B421CD3030A8B42DC
:1006600001D394463FE0C3098B4201D3CB01C01AAA
:10067000524183098B4201D38B01C01A5241430975
:100680008B4201D34B01C01A524103098B4201D363
:100690000B01C01A5241C3088B4201D3CB00C01AD0
:1006A000524183088B4201D38B00C01A5241430848
:1006B0008B4201D34B00C01A5241411A00D201466D
:1006C0005241104670475DE0CA0F00D04942031006
:1006D00000D34042534000229C4603098B422DD355
:1006E000030A8B4212D3FC22890112BA030A8B42FD
:1006F0000CD3890192118B4208D3890192118B424C
:1007000004D389013AD0921100E08909C3098B42D0
:1007100001D3CB01C01A524183098B4201D38B0113
:10072000C01A524143098B4201D34B01C01A5241B6
:1007300003098B4201D30B01C01A5241C3088B42FB
:1007400001D3CB00C01A524183088B4201D38B00E6
:10075000C01A5241D9D243088B4201D34B00C01A70
:100760005241411A00D20146634652415B10104685
:1007700001D34042002B00D54942704763465B10CD
:1007800000D3404201B50020C046C04602BD7047BC
:10079000704770470246C80FC00781434B0030B511
:1007A0004B405B009B0D20D01923DB06C9180123A9
:1007B0001B05994220DB0324A40704251346AB4004
:1007C0000BD3002B04D1EB0613409B00E34204D46F
:1007D00001246407002312195941FF231B05994284
:1007E0000BD2C9000143500F09E0CB0204D50143ED
:1007F0000803024305D0054830BDFF21C905084361
:1008000030BD084607210905884330BD0000C07F80
:10081000F0B50C46871A9C410D46861A9D4103D2BD
:10082000C01BA141D21963410D0D1F0DC94EEC1B18
:10083000AE435CD07F057F0D0026002F51D02D05E3
:10084000AC46A943DD020123ED0A1B051D4320230D
:100850001B1B24D41746E740381871412F46E74048
:10086000CC199D402818314661410C0D27D16144B7
:100870009A4013D50023401C594152000ED1400824
:10088000400001224B005205D34207D30520400708
:10089000C14201D5B04900E0B0493046F0BD6B001F
:1008A000002A00D001229A181F23203C1B1B01D5CF
:1008B000002302E0E540281871410C0DD7D0012437
:1008C00024050919C407CD0740084908E40F284347
:1008D0006144002CD5D00024401C61419A40D0D105
:1008E000CDE76A05520DD9D1C90FC907D5E79C4D8F
:1008F0004E00002801D0012400E0002434195F00DC
:10090000002A01D0012600E00026BE19954FAC4216
:100910000CD8AE420AD8B44206D001256D05EC428F
:10092000BCD010461946F0BD9942FCD00020394693
:10093000F0BDF0B51FB40C460F46811A9F41254605
:10094000861A9D4106D20125ED076F40401ABC4131
:1009500052187B41210D1E0D8D1BAC467D4D8D43E4
:100960007ED075056D0D7CD00D05AE46AC431B03E6
:100970001B0B794D52429D41202366469B1B14D38D
:100980001746F740381800260090744160462F46FD
:100990000741E41900989D402818664116D4714615
:1009A00071189A4025D5012320E093182A466A4100
:1009B0005200002B00D0521C1E23203E9B1B002BFC
:1009C00061DD3541EE1728186641E8D500187641FB
:1009D0005B1C9A4000D3401C4B05F3181524E340E0
:1009E00010D3002B52D071467118D30FC01802D308
:1009F000491C05B0F0BD0123DB079A42F9D140083C
:100A00004000F6E701225205B21801D1002853D068
:100A10000123CC0ADB029943891E002A08D1020C6B
:100A200003D0020C0004103902E0024600202039F5
:100A30000023550B05D112020823550B01D1520199
:100A40000D23550C01D112011B1DD50C01D19200B3
:100A50009B1C150D01D152005B1C2025EE1A01E0F4
:100A60002CE022E00546F54015439840CA1AE107FC
:100A700069181305C918002ABBDA032040070818B3
:100A8000C10FC9070FE071466118B2E7F1074008CE
:100A90000843711071444A000CD001235B059A424F
:100AA000A7D2C90FC9070020A3E74905490D26D1E0
:100AB000002001E00028F4D100219AE7284D6600CB
:100AC000002801D0012100E0002171185F00002AF8
:100AD00001D0012600E00026BE19224FA94210D8FD
:100AE000AE420ED8B14208D001256D05E94206D0CC
:100AF0001946A802414010467BE79C4201D021469E
:100B000077E70020394674E710B50C465C4005D500
:100B10000124E4076340FFF70CFF10BDFFF778FEE8
:100B200010BD30B40C465C4004D50124E40763409A
:100B300030BC6DE630BCFCE670B50124E4076140D2
:100B40000D465D4002D4FFF763FE70BD6340FFF7C2
:100B5000F0FE70BDFF0700000000F0FF0000F07F16
:100B60000000E0FF0000F87FF0B5F94D0C091E0908
:100B70002C402E402F468BB0A7437DD0B543FCD0F0
:100B8000002E7AD0002CFCD00D465D40ED0F2543A1
:100B9000AC1BFF25AD0464190894C502440DC902BD
:100BA0002143500DDC0204430120C00701430443EC
:100BB000D2020191200C110C00958C4601042346B1
:100BC0008B430A9161460904E24D8A430991010A67
:100BD0007D4449198039097805464D4301266D1831
:100BE000F605751B6943C90C640B891C4C436418DA
:100BF000B5012C1B250C2E04B4434C434D43210C52
:100C0000691889090591009DE90701D00121C907EB
:100C100004912C4601996708CD072F434C08059D88
:100C2000E10B4D432D0C29466646754302950D4652
:100C300045432E46029D7D1BB44100950D465D4304
:100C400001942C0C2F040D465543AE462D0C3D430C
:100C5000029503947546049C2D04641B049406D2EB
:100C6000029C039D641C002675410395029401AC0F
:100C700070CC009F7D1B01E03EE162E1B4410904BC
:100C80000095079101940599A4086143090C0C464D
:100C90004443650BE7040C4666467443A646640B62
:100CA0003C43039502947446049DE4042C1B049475
:100CB00006D2029C039D641C002675410395029494
:100CC00001AC70CC009F7D1BB44101940C465C4389
:100CD0000095650FE7000C465443A646640F3C435D
:100CE000039502947446049DE4002C1B049406D2E0
:100CF000029C039D641C002675410395029401AC7F
:100D000070CC009F7D1BB441AE09AF06049DC900A5
:100D1000AD092F43049DA406AD060495079D3443F9
:100D200069180791059DE10B4D432D0C2946664638
:100D3000754302950D4645432E46029D7D1BB441E9
:100D400000950D465D4301942C0C2F040D46554330
:100D5000AE462D0C3D43029503947546049C2D042C
:100D6000641B049406D2029C039D641C00267541FA
:100D70000395029401AC70CC009F7D1BB44101949B
:100D80008C050694079C890A611800950791019CBF
:100D90000599A4086143090C0D464543680BEF040F
:100DA0000D46644665436C0B3C43049FED047D1B7C
:100DB000AC4602D20025641C6841009E019D371B91
:100DC00085410846584301950C46460FC5005443DB
:100DD000600F28436546E4002C1B02D20025401C0E
:100DE0006E41019D3F1AB5412846BD098006284342
:100DF0008446A009BF064E020699A406761807434A
:100E0000079D002068410A99079019430020099B1B
:100E100000906046FF1913434041E20F64003A43DB
:100E2000A4460446D71A8C41A04203D90120009061
:100E300020463A46C70F941840416246D20F2243DB
:100E4000644664000494009CBE466400D71AA4461D
:100E5000044602978C417746002F01D1A04204D965
:100E60006046401C8446029A2046C40FA646941849
:100E70004041049A0546D20F224364466400D31AC7
:100E80008D417146002901D1A84202D928461A464F
:100E9000641C10430122002800D016436102002088
:100EA000079B891904465C410223002C02DB491888
:100EB00013466441089DCE0A2D145D194B05670544
:100EC000E10A2C050D1908993E43C9076940002B1A
:100ED00008D0934006D30022761C5141002B01D14B
:100EE000760876001C4A002D43DB154241D0AA4308
:100EF0003FD030460BB0F0BD06180D464D41174CA3
:100F00007642AC411AD395181C465C41134A6D4297
:100F1000A24113D3012252054C00D4420AD15C00F5
:100F2000D4420BD04B4002D592021143E2E7490074
:100F30004908DFE75940C90FC90718E000200849F0
:100F4000D8E7054801420DD10342F7D0F2E700008F
:100F50000000FF07A87B00000000F07F0000E0FF1A
:100F60000000F87F114859400143C0124140002061
:100F7000C0E70123089A9B069A4205DC0322520728
:100F80008918C90FC907B5E7052252078918074A0A
:100F90001143D2125140ADE770B515461C460246CA
:100FA0000B4628462146FFF7DFFD70BDFFFFFF7FA0
:100FB0000346CA02400D10B510430A1504D001249F
:100FC000E4072043002A05DB0A4CA21A04D4D040CF
:100FD000FF2A00DD002010BD4A00002B01D00120B7
:100FE00000E00020101801225205D042F2D8C817A4
:100FF000C04310BD1E0400001F22030C02D10F22AB
:10100000000402D0030E03D004E000200146704724
:101010000002083A030F01D10001121F830F01D112
:101020008000921E002801DB4000521E120551185C
:101030004205C012411810467047C10FC90700D0C1
:101040004042012292071143D6E701218907D3E7E5
:10105000F0B58B4C0F09254689B0BD437BD01D09E7
:101060002646AE43FAD00E465E402740F60F3E437A
:10107000254071D024012142FBD0FF24AD19A404E6
:101080002D1B039501252D05DB02DB0AC9022B432D
:10109000C90A29431E010901040F130F0501214349
:1010A0001701880B820391432D098C46A90B1E431F
:1010B0008A039543B30B9A0396433F09BA0B9403F3
:1010C000A74302962E467E430497B6464E19D7197B
:1010D0000C460196544305977E43371B7646BF1B4B
:1010E0003601B646BE0B361900967646BC04371953
:1010F000009C01D3641C00946400002F01D00126E1
:101100003443029E049F754366467E4304967600F0
:1011100034196E0034190094029C019E1C19664318
:10112000751BAE46069465464519059C05956C43AE
:10113000594375460891691A0191049E014651432D
:10114000A41B0491611A009C0791E10605D0610976
:101150000122114302E072E06EE06109089D002760
:101160002C0A2D066918049D7C412A0A2D0669184F
:10117000019D6241AC0DAD026D185441079A910D6D
:10118000920255196141029A644658435443069BA2
:10119000059A5A43121A131B9A0E9B015B187A4147
:1011A000010B0005C3185141220A200644195A4177
:1011B0009A4200D2491C01204002814203D31523E8
:1011C0000226F64302E014230326F6432020C51A24
:1011D000A9401746AF40DA400A4320460399D84059
:1011E0000914731819055118039A3843D20751404E
:1011F000AC4009D00122944006D30022401C51414A
:10120000002C01D1400840001E4A934212D3012213
:1012100003989206904207DB0520400709181A48F8
:101220000143C012414004E0032040070818C10FE9
:10123000C907002009B0F0BD0020F107FAE7051842
:101240000C464C4111486D42A04115D394181A46E2
:101250005A410E48644290410ED301204A00400595
:10126000824209D35A00824206D35940C90F084A24
:10127000C90700201143DDE700200649DAE7000036
:101280000000FF07FE070000FFFFFF7F0000E0FFF8
:101290000000F07F0000F87F70B505464800440D5F
:1012A000124B0020002C0AD0634008D09A4206DA84
:1012B0006642B24203DD12054019514170BD002C57
:1012C00008D0002B09D0C90FC907002AF6DB084A4D
:1012D000114370BDC90FC90770BD28460A031043EA
:1012E00002D00020034970BD284670BDFF070000F2
:1012F0000000F07F0000F87F0121C905012341189B
:1013000042001B06D3185B0E0AD0C1100722D2067A
:10131000891840075242D14201D5520089187047BE
:10132000090208D50146002A03D0C10FC9070020D1
:10133000704710467047420202D0002002497047B1
:10134000072109050143F4E70000F87F0102C215F7
:1013500004D00123DB071943002A0ADB9E239A1AD3
:1013600002D40846D0407047FF2241001206914245
:1013700001D900207047C017C04370471F22030CDB
:1013800002D10F2200041CD0030E01D10002083A42
:10139000030F01D10001121F830F01D18000921EA3
:1013A000002801DB4000521ED205511802125118CC
:1013B0001922904004D3491C002801D14908490052
:1013C00008467047C10FC90700D04042012292076A
:1013D0001143D3E701218907D0E770B50446856939
:1013E0000068C10601D5302600E02026C00707D0DE
:1013F00070BD62683046A1689047206A401C206238
:101400006D1EF6D570BD70B5044685690078C007BD
:1014100007D170BD6268A16820209047206A401CF7
:1014200020626D1EF6D570BD09684A0501D540B22F
:101430007047C905FCD500B2704709684A0501D557
:10144000C0B27047C905FCD580B2704770B50C4674
:101450000546012A05D02878800600D5EA690023D0
:1014600002E0012305E05B1C934202D2E05C00280D
:10147000F9D1A869E618C01AA861286AC0182862BC
:101480002846FFF7AAFF04E06A682078A968641C70
:101490009047B442F8D32846FFF7B5FF70BD00006F
:1014A000F7B5002575291068009914A611D0FFF72B
:1014B000BBFF002802DA404211A608E00099096843
:1014C0008A0701D50FA602E0490704D50EA601251B
:1014D00001E0FFF7B2FF009F0024243704E001F091
:1014E000A3FE30313955641C0028F8D12B46324612
:1014F0002146009800F084FDFEBD000000000000C1
:101500002D0000002B000000200000001168026880
:10151000006A530501D5087009E0D30501D508809C
:1015200005E0130602D5C21705C100E008600120DE
:101530007047000001694A1C02610878704700B5D5
:101540008FB00291002105910549019379440391DF
:1015500011460490684600F02DF90FB000BD000060
:10156000E5FFFFFF0A681070521C0A6070470CC943
:1015700008399A4202D2531C0B6010707047000069
:10158000F7B50446154686B02B487844002703C8B3
:101590003E460090019111E007986A467100415A59
:1015A00002A801F021FE411C07D02178890603D54D
:1015B000E269391891420ED83F18761C20788006CF
:1015C00002D5E069B84206DDAE42E5DB079871005E
:1015D000405A0028E0D1A069C01BA0612046FFF757
:1015E000FCFE154878445A3803C800900020019149
:1015F00016E041006A460798415A02A801F0F4FD3E
:101600000590401C0AD0002505E0626802A8A16888
:10161000405D90476D1C05988542F6D30498401CA8
:10162000B0420490E5DB206AC01920622046FFF733
:10163000EAFE09B0F0BD00006E720000F7B5D21DE1
:101640000025D20815A6D200F52905CA11D0002A16
:1016500005DA00214042914111A60A4608E00099AE
:1016600009688B0701D50FA602E0490701D50EA630
:1016700001251146009F0024243704E000F07AFC85
:1016800030323A55641C02460A43F7D12B463246A3
:101690002146009800F0B4FCFEBD000000000000F0
:1016A0002D0000002B0000002000000070B5044653
:1016B0000021243408E05507D2086D0F30356554F9
:1016C0005D072A43DB08491C15461D43F3D1046816
:1016D000002310A2250708D5A40601D4002904D0B0
:1016E000C46901230CA2641EC46100F089FC70BDB2
:1016F00010B5044621461068FFF79FFE00230246FE
:101700002046FFF7D3FF10BDD21DD108C9000CC978
:10171000CCE700000000000030000000F8B50F46E4
:101720000188090502D5224C7C4402E0204C7C440F
:101730000E3405460021243508E016071209360F3D
:10174000A65D6E541E0732431B09491C16461E43F4
:10175000F3D1224604780023240705D5702F06D044
:10176000002901D00223113200F04AFCF8BD012308
:101770001032F9E770B504460D4621461068FFF7B0
:101780005CFE0023024629462046FFF7C7FF70BDD6
:10179000D21DD308DB000CCBC0E730B40368202493
:1017A0001268234303600823C36130BC0023B5E7FC
:1017B000D8700000F3B50446002081B020622046B6
:1017C000E1688847002872D0252802D06268A168A5
:1017D000ABE0594F00267F442046E1688847202827
:1017E000054608DB312D06D278192038007800280C
:1017F00001D00643F0E7B00701D50420864300205E
:10180000E0610746A0612A2D0AD0284606F0F4FBC5
:10181000002827D0B8000019303D0090856119E0FC
:101820000298BA00121902C8916102902046E1683C
:101830008847012F054617D1E06900281FDA2020CC
:1018400086431CE000980A218069484300994019AA
:10185000303888612046E1688847054606F0CCFBB1
:101860000028EFD1012F0AD02E2D08D12046E168A3
:1018700088470546202006437F1C022FC3DBA06952
:10188000002803DA4042A06101200643F00701D09E
:10189000102086436C2D0BD0682D09D04C2D3CD0E8
:1018A0006A2D38D0742D38D07A2D36D016E040E02D
:1018B000E1682F4620468847B842054609D16C2F7B
:1018C00029D001208002E16806432046884705466A
:1018D00004E06C2F1DD0FF2001300643002D28D0DE
:1018E00028464138192803D80120C0020643203574
:1018F000204626602946029A1646FEF719FC002863
:1019000010D001280BD0F61DF008C000083002905E
:1019100055E74020E1E78020D5E70020D3E7361DDA
:1019200002964CE762682846A1689047206A401CEE
:1019300044E7206AFEBD000052700000FFB58BB086
:101940000878FF2806D0491C2D2805D00023002048
:10195000009009E000200EE00123F8E7009A0A2435
:1019600062438018491C00900878FF28F6D1002BAC
:1019700002D0009840420090002503952C460D9817
:1019800000782D2801D02B2815D10D99491C2D2820
:101990000D9102D0002003900DE00120FBE7401CD8
:1019A000214600270A223B460D90284600F0CAFA3D
:1019B00035183C464C410D980678FF2EEFD100219A
:1019C00008460020C0460399002902D08100401833
:1019D00040080002860F012E01DD0026F6430E9915
:1019E00000984718284620430BD0FF20F530C74207
:1019F0001ADA0398C1070B98002E41600ADD012016
:101A000009E00398C1070B9841600B99002008601A
:101A10000FB0F0BD00200B99086000F08FFA022192
:101A20000160182108461AE0FF20F530874219DDD1
:101A3000002E02DAFC48784401E0FC48784406C8ED
:101A40000B9806C00B9803994068C90708430B9987
:101A5000486000F073FA022101601421084600205A
:101A6000C046D5E7002108460020C04639000A904C
:101A700001D5724200E03246002900DA794207A817
:101A800001F086F807AB07CB04AB07C3E84800902A
:101A900000200146214304D12C460546E449203963
:101AA0000091210C0904014306D1290C24040C43A4
:101AB00000992D0410390091210E0906014306D129
:101AC000290E24020C4300992D0208390091210FA0
:101AD0000907014306D1290F24010C4300992D0168
:101AE000091F0091A10F8907014306D1A90FA40086
:101AF0000C430099AD00891E0091E10FC90708430E
:101B000004D100986D196441401E0090002F029589
:101B1000019406DD32466846012304A901F0CCFA9F
:101B200005E001233246684604A901F01AFB044689
:101B300003980D46002802D00120C0074440002130
:101B400008460020C0460A99BA4E48400007800F58
:101B500007D160004008284303D06000400DB04228
:101B600014D100F0EBF9022101606000400DB04299
:101B70000CD1B148784406C80B9806C00B98E10F09
:101B8000C907406808430B99486041E70B984460D7
:101B90000B9805603CE7FFB51F4695B00020002577
:101BA0000C909E685C68ED43139000F0C3F9C06828
:101BB0000168405C1490B96916986D1C88470A90BA
:101BC000396A88470028F6D10A98401C0AD00D20AF
:101BD000C0018443002E12DD0A982B2809D02D283D
:101BE0000DD103E00020C04319B0F0BD01208002F8
:101BF0000443B96916986D1C8847761E0A906005E3
:101C000004A901D52D2000E02B206A46491C107440
:101C100010A8002E0D910B903BDD0A98692805D085
:101C2000492803D06E2801D04E281DD13B46039091
:101C300002200296179A1699C0430095019406F067
:101C400065FDC11CD0D10FE0B96916986D1C88479D
:101C50000A900120761E40020443179805601398ED
:101C6000401C002E139014DD0A983028ECD0782800
:101C700001D058280DD1139801280AD13B4602966D
:101C8000179A1699001F0095019406F037FDC11CA4
:101C9000AAD114990A98884246D18020044308E0CA
:101CA0000C981799401E0C90012040020443681CB8
:101CB0000860B9696D1C1698761E884730280A900E
:101CC000EED031E01499884205D1200603D480205B
:101CD0000443761E1EE00A9806F08EF9002826D0EE
:101CE000012008A9400204430D980331761E884262
:101CF0000BD20A980D99303808700D98401C0D9041
:101D0000200607D50C98401E03E0200602D40C984C
:101D1000401C0C90A00502D51799681C0860B96991
:101D200016986D1C88470A90002ECBDC59E0002ED7
:101D300057DD0A98652801D0452852D1A00550D515
:101D40000320B969000284436D1C1698761E8847EB
:101D5000002E0A900CDD2B2804D02D2808D1FF205E
:101D600001300443B96916986D1C8847761E0A90A5
:101D7000E00501D52D2100E02B210B9801700B9877
:101D8000401C0B90009025E0012012A94002044362
:101D90000B980131761E88420ED20A980B99303882
:101DA0000006000E087003D100990B9888420AD9EA
:101DB0000B98401C0B9006E0E00501D51F4801E0A0
:101DC0001E4840420C90B96916986D1C88470A90CD
:101DD00017980560002E04DD0A9806F00DF900281A
:101DE000D2D1F969169888470D99FF2004AA087086
:101DF0000B99087000200E900F900C9B10A90EA854
:101E0000FFF79CFDA00502D40120C043ECE624208E
:101E1000044215D0E0071FD138680F9A0E99031DB0
:101E20003B60006806C017E07A6F00006C6F00002E
:101E30003E400000FF070000346E0000F1D8FFFFB5
:101E40000EA9684606F062F8E00705D13868009AE6
:101E5000011D3960006802602846C5E60268511815
:101E6000137801601846704710B5D1600549794470
:101E7000516105497944116200211161114600F058
:101E8000BDFC10BDEBFFFFFF770100004268002A98
:101E900008D001680B78491C002B03D0521E06C0E5
:101EA000184670470121C160881E70474268002AA9
:101EB0000BD0C3680168002B07D183688B4204D024
:101EC000491E521C06C0002070470020C0437047C6
:101ED00010B5FF231B0644009C421DD84C009C42B9
:101EE0001AD80346124A0B4307D4401A02D3EFF321
:101EF000008010BDEFF3008010BD081A06D2EFF38A
:101F0000008001219043C907084302E0EFF30080FD
:101F1000904380F3008810BD0D231B041A4204D0A7
:101F20001146002001F094F910BD01F0A9F910BD8F
:101F3000000000900048704784050020004870476A
:101F4000640500204343514330B55C18010C130C69
:101F50000D4692B25D4380B251432C19054655435C
:101F60000A0C09044D1962415843010C0004401940
:101F7000514130BD0B4670B50246890780080843C1
:101F800019469D08141AA94125090807054308099F
:101F90002C194841250A01060D43010A2C1941411B
:101FA000200C0D0428430D0C00194D41002140194F
:101FB0004D41C00869070843E908840F8D00254397
:101FC000840024184D4124196D41121BAB4107E0D8
:101FD0000925ED432C11521963410024401C614135
:101FE0001C460A250026551BB441F1D270BD10B520
:101FF000044601F071F90068005DC007C00F10BD14
:10200000FFB504460D4681B0243000902168880653
:1020100004D51022E0699143216000E00120A8422C
:1020200001DD471B00E000270498A1697A19101808
:10203000081AA0612078C00602D42046FFF7CDF927
:10204000002608E003986268A168805D9047206AD6
:10205000401C761C206204988642F3DB2078C00680
:102060000AD52046FFF7B9F906E06268A16830207A
:102070009047206A401C206238467F1E0028F4DC0E
:1020800007E000986268A168405D9047206A401CA4
:10209000206228466D1E0028F3DC2046FFF7B3F9C6
:1020A0002078000602D5022005B0F0BD0120FBE734
:1020B0007047FFB50C461E468FB003CA08900991C1
:1020C0004F007D0D00D16D1E002108460020C04646
:1020D0000321099A89050840002A03DA8200801842
:1020E00040080840800D01280A9002DD0020C0430E
:1020F0000A90089807430DD0F048F1492818484342
:102100000714189800281DD07542291E1DDD0A9855
:1021100042421BE01898012802D00020302104E040
:102120000020F24305E02154401CB042FBDB304666
:102130000022189B002121540F998B600A6048608F
:1021400013B0F0BDBD1B6D1CDFE70A9A002900DA51
:1021500069420BA800F01CFD0BAB07CB03AB07C318
:102160000899099800F080FD6B4607C30146D548E1
:102170000918002D00910BDDD24903980A9A4942B3
:102180004018002303A90390684600F0DDFF08E033
:1021900003990A9A0023081803A90390684600F0DF
:1021A0007DFF6B4607C30004000C03D00020C04332
:1021B000410800E01046189A002A03D0002200923D
:1021C00015461EE0751E05D4FFF7D4FE3032625569
:1021D0006D1EF9D501220843079602D000227F1C0C
:1021E00004E02078302801D100227F1E002A0697C3
:1021F00087D01EE0112D07DAFFF7BCFE30326255A2
:102200006D1C02460A43F5D1084303D0009800280C
:1022100019D00EE00021681E05E0235C625C635467
:102220002254401E491C8142F7DBA81B401E079523
:102230000690079A18990020A0540F98079B069AB9
:1022400081600CC07CE711260020189059E7D21D50
:10225000F0B50D460446D10893B0C90003C90C90EF
:102260000D9105F007FE02460D98C00F01D02D20FC
:1022700007E02068810701D52B2002E04007C00F4E
:102280004001032A0F9001D0072A05DB03462946A7
:10229000204601F035F80EE12078800601D5E76987
:1022A00000E006272846652D04D0662814D0672D47
:1022B00069D12DE00020112F009001DB112300E0F7
:1022C0007B1C0CAA03A910A8FFF7F3FE11990026A6
:1022D00010987D1C0E9142E001203B460CAAC007DD
:1022E0000B900120009003A910A8FFF7E2FE119DBA
:1022F00012981099002600280E9501D1781C0D180F
:10230000781B02D446427D1C761EE81B00903AE002
:10231000012F00DA01270020112F009001DD112389
:1023200000E03B460CAA03A910A8FFF7C2FE1199D2
:102330003D46109800260E91217809070BD40E997E
:10234000A94200DA0D4603A9012D04DD4A19203AFD
:10235000D27F302A06D0B84201DA011D04DA012109
:1023600000910FE06D1EEFE7002802DC86192D1AA0
:1023700003E0411CA94200DD0D46801B401C00907B
:102380000120C0070B902078000705D40098A842D0
:1023900002DB0020C043009069460020C8720B9801
:1023A000012102AF0337C907884225D002201090CF
:1023B0002B2011900B9800280BDA40420B902D2017
:1023C000119006E00B9800F02FFF30317F1E0B902C
:1023D00039701099481E00291090F3DC0B980028E2
:1023E000F0D111987F1E38702088000501D5452056
:1023F00000E065207F1E387001A8C01BC01D0B9037
:102400000F98002800D0012041190098C017091822
:102410000B980818A169081A401EA0612078C00610
:1024200002D42046FEF7D9FF0F98002805D0626835
:10243000A1689047206A401C20622078C00625D5FC
:102440002046FEF7CAFF21E0002E07DB0E98B042BF
:1024500004DD03A86268805DA16802E06268A1688B
:1024600030209047206A761C401C20620098401E55
:10247000002800900AD1FFF75DFDC068626801681E
:10248000405CA1689047206A401C206228466D1E6F
:102490000028D9DC07E062683878A1687F1C904783
:1024A000206A401C20620B99481E00290B90F2DC28
:1024B0002046FEF7A8FF032042E6000001FCFFFFD4
:1024C000104D0000E1DFFFFFD21DF0B504460D46C0
:1024D000D0088DB0C000466807683146384605F020
:1024E000C9FC0246F00F01D02D2307E020688107C8
:1024F00001D52B2302E04007C00F43016846002BA3
:10250000037001D0012000E00020032A0A9001D0CE
:10251000072A04DB2946204600F0F2FE2DE1207850
:10252000800601D40D2500E0E5697000400D0D2DF9
:1025300001904BDA300D00210B9008460020C04678
:10254000032189050840002E05DA82008018C20F99
:102550001018401008408015012801DD0020C043FC
:10256000A9000023182906D39C460A460123183ADD
:102570001B07D34003E001221205CA4094460C31E8
:10258000202902D33A46203900E032468A4000280A
:1025900002DD002A06D119E0002817D10121C90760
:1025A0008A4213D3194663467F185E41002806D13C
:1025B0000120C007824202D1084687439E430B9800
:1025C000310D814202D00198401C01902088000505
:1025D00002D57149794402E06F49794419396B4653
:1025E0000A9830221A540A980A7C401C1A54401C3B
:1025F0000A900198002801DC302000E03120187298
:10260000019A0120002A02D0644BD21804E0720023
:102610003A4302D0614A521C0192002D02DC22781A
:10262000120703D56A462E205072022000228646E9
:1026300094460CE032033601120F6D1E8B5C02AA29
:1026400013546246521C401C9446052A01DA002DA0
:10265000F0DC002202AE08E03B0F3F01CB5C521CD5
:102660006D1E3354401C082A01DA002DF4DC236867
:102670009A0601D511E0401E704504DD3218203A5B
:10268000D27F302AF7D0002807DD3218203AD27FD7
:102690002E2A02D11A0700D4401E002D03DD3E224F
:1026A0003254401C6D1E497C31540199401C002954
:1026B00006DA2D21471C315401984042019003E075
:1026C0002B21471C315401987D21C900884206DB2B
:1026D000FDF7BAFF3030F0557F1C019101E064280E
:1026E00008DB01986421FDF7AFFF3030F0557F1C07
:1026F000019101E00A2806DB01980A21FDF7A4FFF9
:102700003030F0557F1C01980A21FDF79DFF3031D4
:10271000F1550A98A1697F1C7A191018081AA0614E
:102720002078C00602D42046FEF757FE216A6E4686
:102730000A980818206204E062683078A168761C64
:1027400090470A98401E0A90401CF5D12078C00698
:1027500002D52046FEF741FE02AE09E03078761C35
:102760003E280DD06268A1689047206A401C206214
:102770007F1EF3D22046FEF746FE0DB00320F0BDCB
:10278000206A4019206203E06268A1683020904707
:102790006D1EEDD3F8E700007862000001FCFFFF3A
:1027A00010B54369002B02D0C046C04601E0FEF7D9
:1027B0004DFE012010BD1278014624310A7000221E
:1027C0004A700122ECE711680022D243E8E710B515
:1027D0004369002B02D0C046C04601E0FEF7D0FEA0
:1027E000012010BD12880146243182840022C28457
:1027F0000122ECE711680022D243E8E7F3B50C466A
:102800008FB000200C90012000260E9008460C305E
:1028100003906269039801219047051E2ED0252D53
:102820002DD0216A8847002818D0626903980121B9
:102830009047216A88470028F7D16269411E0398B2
:10284000904700E0761CA1690F988847216A884765
:102850000028F7D1E1690F988847DAE7A1690F9856
:102860008847A842074601D1761CD2E7E1690F9854
:1028700088477F1C02D10C98002877D075E16269E7
:10288000039800273D46394690472A280CD16269B3
:10289000039801219047012506E00A214F433F1884
:1028A000303FEBD410200543626903980121904723
:1028B000014630390A2903D2B1498F42DEDCECE708
:1028C000E90600D4AF4F6C280AD04C2810D06828F5
:1028D00024D06A282ED074280CD07A280AD00DE093
:1028E00062690398012190476C2823D004211CE0E1
:1028F000202005436269039801219047A76065285D
:1029000065604FD026DC582839D01ADC452849D0DC
:1029100012DC252834D04128B0D143E06269039805
:1029200001219047682802D008210D43E6E70120E5
:10293000C002DEE70220DCE7462833D047289DD1DD
:1029400030E05B2870D061282CD063286CD06428DC
:1029500094D161E06F284FD009DC662822D0672827
:1029600020D0692826D06E2888D12EE0F9E0702882
:102970004DD073286FD075284ED078280DD154E0F3
:10298000A1690F9888472528054600D16CE7E169C1
:102990000F9888476D1C00D16DE7E6E00A224CE0F5
:1029A0000A2252E0012023466A460F99C04305F0EF
:1029B0009DFECFE040212846234608436060A807DB
:1029C00001D5002239E000223FE0E80700D020E7EF
:1029D0002068011D21600068290501D5067018E7EF
:1029E000290701D5068014E7A90703D5F11706606A
:1029F00041600EE706600CE7402128462346084365
:102A00006060A80701D5082217E008221DE05E4992
:102A100028460840606016E04021284623460843C7
:102A20006060A807BCD5B9E715E0402128460843F7
:102A30006060A80707D52346102201200F99C043E4
:102A4000C046C04686E01022234601200F99C043AD
:102A5000C046C0467EE0002163280B4601910091EC
:102A600002910D9102D05B2808D03CE02079C0068D
:102A700001D40120A0600120009034E0E068012131
:102A80000D906269039890475E2807D1012001905C
:102A9000E06801210D90626903989047216900293F
:102AA00006D10B4604AA8F00491C0829D351FADB32
:102AB00000285AD02169002927D00298401C029092
:102AC00062690398012190475D28F1D1019800289F
:102AD00008D0002004AB8100401C5A58D24308287B
:102AE0005A50F8DB04AB2069002820791DD040073C
:102AF00026D5029A00980D9B009222460290012052
:102B00000F99C043C046C04624E0C117C90E09183A
:102B10004A114909930004AA9A184901411A1368F5
:102B20000120884003431360CAE740072246174844
:102B30000F9902D5C046C0460CE0FDF781FC09E0C4
:102B40000298224600990D9B009002910F480F9920
:102B5000C046C04600280ADA401C06D10E9800285C
:102B600003D00020C04311B0F0BD0C98FBE7E9078B
:102B700002D10C99491C0C91361800200E9048E6A1
:102B8000CCCCCC0CFFFFFF7FF1F7FFFFFEFFFFFF78
:102B9000F7B516468AB0334878446C4603467C3312
:102BA000C06F5A689B680DC42E487844763003ACD9
:102BB0000DC80DC43720C001081837211B30FDF7A0
:102BC00043FD05460C46803D1B3C02D56442012076
:102BD00000E000200027099010E0E0070CD00C2056
:102BE00020497843794432464C39411868460123DC
:102BF00000F054FA6B4607C364107F1C002CECD124
:102C0000184F7F442E3F16E0E80712D02001C0196C
:102C10000EC80691089307920068F04201D19819F6
:102C200008903246012306A903A800F037FA03AB47
:102C300007C36D10641C002DE6D10998002806D04A
:102C400032466946012303A800F07EFA05E001231D
:102C50003246694603A800F021FA0A9B07C30DB06B
:102C6000F0BD0000C85C0000034640000A4610B5F5
:102C7000400D0BD00121C9070F24A40200191C0329
:102C800064082143540D2143D20207E000210120B2
:102C9000F2E7D40F490021435200401E0029F8DA20
:102CA000DB0FDB07184310BDFFB50D46144685B09A
:102CB0004868516805F0C6F800910190A868A168BD
:102CC00005F0C0F802910390A868616805F0BAF8B1
:102CD000029A12188242029201D2012000E00020E2
:102CE000019A0B18D2180028019202D08A4202D908
:102CF00003E08A4201D2012000E000200099081878
:102D000000906868A16805F09DF8029A1218824246
:102D1000029201D2012000E00020019A0B18D21883
:102D20000028019202D08A4202D903E08A4201D2ED
:102D3000012000E000200099081800902868216810
:102D400040004900400849084018FA49471814E073
:102D500001994000C90F0843009001980299400072
:102D6000C90F08430190029803994000C90F084316
:102D70000290039840007F1E039000980028E7DA35
:102D80000898002801D0EC4E00E00026B74201DA96
:102D9000012000E00020002804902AD0F71BF8064C
:102DA000C00E15D0029B2021091A039A8B401A43AA
:102DB0000392029A019BC2408B401A430292019AED
:102DC000009BC2408B4000991A430192C140009180
:102DD0007B110DD06F460320C11A03D5002182005C
:102DE000B95003E08A008100BA587A50401EF3D5EA
:102DF000374603980299002800D001200143089823
:102E00000291002808460CD0002800D0012001992A
:102E1000019A490508430121D20AC902D20201924E
:102E200000E001210E9B0122D207012B02D0002BD2
:102E300003D013E0002807D120E0904204D890424C
:102E40000CD1019B0B4209D0019B5918019105D16E
:102E50000099491C009101D17F1C009200280DD0DF
:102E6000102108460020C0460498002806D00F987C
:102E7000002803D0082108460020C04628682168A1
:102E8000019B009A4840C10F0598C90739430EC0FD
:102E900009B0F0BDFFB587B0099A08980899536842
:102EA00092684068896896460022039317469446C4
:102EB000089A12685300099A5B0812685200520877
:102EC0009A1A9E4BD4180A9A002A01D0352200E0A3
:102ED000402206920022012315460492DB07059347
:102EE00024E0002D05D175460346039E4D1BB341DA
:102EF00009D375466646039B491B049D9841059B73
:102F00007519AC465F4163463B4308D0059B049E60
:102F1000DD0776082E435B080496059301E0521EF8
:102F2000641EC50FED0749184041521C069B9A428A
:102F3000D7DB002D04D17546039A6B1A824101D26A
:102F400003200CE0039A0B466B404240134303D02E
:102F5000014303D0012002E0022000E0002061468E
:102F600001910021009702910A99002905D061463C
:102F700040020143704B019102E080070023029060
:102F80009C4201DA012000E0002007003AD01A1B21
:102F9000D006C00E15D0029D2021019C091AC54003
:102FA0008C402543029C8C4000D001242543019C89
:102FB0000295009DC4408D4000992C430194C1406E
:102FC000009154111DD06D460221002202290CD11E
:102FD0000320001B07E0002804DB8600AE59002E0A
:102FE00000D00122401C0328F5DB081B02D5880015
:102FF0002A5004E08000285810438A00A850491E37
:10300000E3D51C460A98002802980CD0002800D06E
:1030100001200199019A490508430121D20AC902F8
:10302000D202019200E00121109B0122D207012B64
:1030300002D0002B03D013E0002807D11FE09042FC
:1030400004D890420CD1019B0B4209D0019B591826
:10305000019105D10099491C009101D1641C009295
:1030600000280CD0102108460020C046002F06D0B2
:103070001198002803D0082108460020C04608986F
:103080000999019A009B006809684840C10F079898
:10309000C907214382600AC00BB0F0BD00B585B0FE
:1030A000019300920A460146002302A8FFF7FCFDA7
:1030B00002A807C805B000BDFFB50A461F4685B087
:1030C0000799019301230091014602A8FFF7ECFD47
:1030D00002990398049ECA0F4900D20700920F225A
:1030E000490892028C1A0021002800DB0C4645009A
:1030F00013486D08844214D3079A002A04DA441E48
:103100000026104DF64302E004460D460E461021FF
:1031100008460020C046002F03D0042108460020A6
:10312000C0462005E90A0843009908436905F20AE8
:103130001143ADE602C0FFFF013C0000FF3F00006D
:10314000FF070000FFFFFF7F00B585B001930092ED
:103150000A460146002302A8FFF79CFE02A807C802
:10316000A8E7FFB50A461F4685B0079901930123DA
:103170000091014602A8FFF78DFE02990398049E74
:10318000CA0F4900D20700920F22490892028C1AF6
:103190000021002800DB0C46450011486D088442E0
:1031A00014D3079A002A04DA441E00260D4DF64374
:1031B00002E004460D460E46102108460020C04697
:1031C000002F03D0042108460020C0462005E90A4C
:1031D0000843009908436905F20A114358E60000C4
:1031E000FF070000FFFFFF7F70B516460C4605463F
:1031F00000F072F80368FF200230C05C012807D09D
:10320000FF2C0ED8185D00280BD001202C7070BD4B
:10321000FF333246214608331868C31828469847BA
:1032200070BD0020C04370BD01468008081A020925
:103230001018020A1018020C1018C0088200121888
:103240005200891A01E0401C0A390A29FBD2704752
:10325000C80212D54803400F002804D0C803C04359
:10326000012188407047EFF300800001000903212D
:103270000907084380F3008870470020704700006A
:1032800010B5024800F0C0FA10BD00000000C07F79
:1032900000487047640500207546FFF7F9FFAE4609
:1032A000050069465346C008C000854618B020B5E1
:1032B000FCF7F6FF60BC00274908B6460026C0C5EB
:1032C000C0C5C0C5C0C5C0C5C0C5C0C5C0C5403DDE
:1032D00049008D467047000010B5FEF72BFE001D1B
:1032E00010BD00BF3950000010B5FEF727FE006882
:1032F00010BD10B50446FEF721FE046010BD0000AD
:10330000F8B51F46044601230068DB020326014688
:103310001840072A05DB002801D017A506E017A5ED
:1033200004E0002801D016A500E016A51020814376
:103330002160A069C01E002FA06101D0401EA061C5
:103340002046FEF74AF8002F09D038466268A16887
:103350009047206A401C2062C01C206206E0206A60
:10336000FAE762682878A1686D1C9047761EF8D24B
:103370002046FEF748F8F8BD4E414E006E616E00E3
:10338000494E4600696E6600FFB51F4689B0139826
:1033900012994005C00FC007059000200790054610
:1033A0000446461E049002903C20491C129106904F
:1033B000B9690A98884703901498401E149014988D
:1033C000002841DD03982E2816D0102100F05BFA6A
:1033D000002834DB01210491079901431AD0069992
:1033E00000290CDB069AC11700F03DFA0543069848
:1033F0000C43001F069006E0012002900EE000281A
:1034000001D001200543012007900298002805D132
:10341000361D03E00298002800D0361F1298401C89
:103420001290B9690A98884703901498401E149026
:1034300004980028C3D00B9912980860BFE703983E
:10344000702808D0502806D0F9690A98884704984F
:10345000002815D051E0002003900120029004982C
:1034600000280AD01298401C1290B9690A9888471F
:103470001499491E0029149106DCF9690A988847B5
:103480000120C0430DB0F0BD2B2804D02D280DD154
:103490000020C04302901298401C1290B9690A980B
:1034A00088471499491E00291491E6DD411CE4D097
:1034B0000A2100F0E8F90028DFDB03990A225143D2
:1034C000081803901298401C1290B9690A9888470E
:1034D0000A2100F0D8F914990B9A491E14911299F7
:1034E00011601499002901DD0028E6DAF9690A98CB
:1034F0008847029903984843861913982421084065
:1035000004902846204304D0A10F8907090002D067
:1035100006E005989BE0A90FA4000C43AD00B61E81
:10352000E10FC907080002D16D196441761E0498A5
:10353000002803D00B2002905D4803E02820029071
:103540007D20C0438642039007DA811B0298081849
:103550004128029001DD41200290029A01200021C1
:10356000521E00F080F9024628400B4621400843D5
:1035700001D0012000E0002007900020521EC0432F
:1035800043412A4023401A4301D0012000E000209B
:1035900007990690014352D0002108460020C046FA
:1035A0000321059A89050840002A05D08200801869
:1035B000C20F1018401008408015012802DD0020BD
:1035C000C04301E0012815D0401C38D007980028DE
:1035D00035D0069800280DD1029A0120002100F074
:1035E00042F928402140084301D0012000E000209A
:1035F000002824D0029A0120002100F034F903466B
:1036000040198C4661412A1A8C410FD302984028F8
:1036100007DD0498039E002801D0343E02E0173EE7
:1036200000E0761C01240025E40708E05B1E6246EA
:103630000024E4436241DD43D44305400C40039839
:103640000121081AB04206DA1A4905980843019088
:10365000002000900EE060006205010BE80A1043B4
:10366000059A009068460A4313490A43314601927D
:1036700004F0B8FC049800280AD01398C00714D1AD
:103680003868019A0099031D3B60006806C00CE091
:1036900002A8694604F03AFC1398C00705D13868BF
:1036A000029A011D3960006802601298EAE6000083
:1036B00002FCFFFF0000F07F0000F03FFFB51D4659
:1036C00087B01198484A109C129E40051399C00F6C
:1036D000761EC0070243019200220092FF22D2050B
:1036E0001043202291434929059003D017464E29C3
:1036F00028D04FE03DA002AA0BC801270BC2A96940
:103700000898641C8847761E014607D402A8C05D4D
:10371000002803D02022914381420AD0E969089809
:103720008847032F36D0082F34D00120C0430BB078
:10373000F0BD7F1C032F01D0082FE0D10999601C38
:103740000860DCE7A9690898641C8847761E2DD4B8
:10375000B84341282AD1A9690898641C8847761E75
:1037600024D4B8434E2821D1A9690898641C8847FD
:1037700001990122D204114301910599D20011430C
:1037800005910999761E0C6001D4282806D0E969B4
:10379000089888471198C00712D023E0A9690898B3
:1037A000641C8847761E01D4002803DAE96908986A
:1037B0008847BAE72928F1D10998641C0460E9E731
:1037C00011982421084207D02868019A0099031D06
:1037D0002B60006806C005E028680599021D2A6074
:1037E000006801602046A2E70000F07F494E46498C
:1037F0004E4954590000000010B50446C046C0466A
:103800002046FCF721FD10BD10B50C461107090F2D
:10381000092904D00A290AD008290CD104E011464C
:103820000820FFF715FD06E0510606D501E0510618
:1038300001D50120C007214610BDD10607D50101E1
:103840000909CC084907000E0006044309E0410FAE
:1038500020024907000A0143200E00061D22D14123
:1038600001430846E7E710B5202A04DB0146203A69
:103870009140002010BD914020239C1A0346E34054
:103880001943904010BD3A2800D230382023024618
:103890009A43412A01D310463738884201D3002089
:1038A000C0437047F8B5224C4E00069DA6420AD888
:1038B000A64201D1002806D15E00A64203D8A64246
:1038C0000AD1002A08D00D24240425422CD02946F0
:1038D0000020FFF7BDFCF8BD0C461C430CD49942F8
:1038E00002D0EFF30080F8BD904202D0EFF30080E9
:1038F000F8BDEFF30080F8BD09242407E5008B42F2
:1039000006D0EFF30080A043591A06D2284304E002
:10391000101A05D3EFF30080A04380F30088F8BDB0
:10392000EFF30080A043F1E7009500F009F8F8BD3F
:103930000000E0FF01491820ABBEFEE726000200B0
:1039400010B500200249029AFFF75EFF10BD00008B
:103950000000F87F70470000F8B504460020009092
:10396000206881688907890F012905D10168C90785
:1039700031D1C16809042ED48168184A102611403B
:10398000012500291AD1816829438160154814490D
:103990000068FCF74FFE00E0401E00900028FBD1BD
:1039A00000F068FD074611E000F064FDC01B02282E
:1039B0000CD920680068C043C00707D0A06B304313
:1039C000A063E06B2843E0630120F8BD2068006835
:1039D000C043C007E8D10020F8BD000017000080F8
:1039E00040420F0070000020FEB51F4C0746024603
:1039F0001E48A16C04F040FB05463846A16804F05F
:103A0000FDFD294604F076FD216904F003FD184D03
:103A10002063A84207DDFDF76FFC02460B4615A0A8
:103A200000F0CEF92563206BFDF766FC0E460546D7
:103A3000204A214BFDF798F80C22FDF72DFCFDF7ED
:103A4000B7FA84B23846FDF757FC02460092334677
:103A500001912A4619A000F0B3F905200003204384
:103A600004F0D2FAFEBD000000000020D8000020C3
:103A7000000040405761726E696E673A2056677366
:103A80005F4472697665722065786365656420338A
:103A9000562C2063757272656E742076616C756544
:103AA0003A20252E32662C2053657420746F203303
:103AB0000D0A00006666666666660A400D0A416485
:103AC0006A7573745F5667735F4472697665723A9C
:103AD000205667735F447269766572203D20252EFB
:103AE00034662C2054203D20252E32660D0A00001D
:103AF000FEB51F4C074602461E48E16C04F0BCFAB6
:103B000005463846A16804F079FD294604F0F2FC28
:103B1000616904F07FFC184D6063A84207DDFDF782
:103B2000EBFB02460B4615A000F04AF96563606B9B
:103B3000FDF7E2FB0E460546204A214BFDF714F83F
:103B40000C22FDF7A9FBFDF733FA84B23846FDF7E6
:103B5000D3FB02460092334601912A4619A000F099
:103B60002FF901200003204304F04EFAFEBD0000AF
:103B70000000002050010020000040405761726E9C
:103B8000696E673A205667735F4D61696E2065788C
:103B9000636565642033562C2063757272656E749C
:103BA0002076616C75653A20252E32662C2053658F
:103BB0007420746F20330D0A00000000666666668C
:103BC00066660A400D0A41646A7573745F566773CE
:103BD0005F4D61696E3A205667735F4D61696E2073
:103BE0003D20252E34662C2054203D20252E326683
:103BF0000D0A0000FEB51F4C074602461E48216D07
:103C000004F03AFA05463846A16804F0F7FC294664
:103C100004F070FCA16904F0FDFB184DA063A842FC
:103C200007DDFDF769FB02460B4615A000F0C8F85A
:103C3000A563A06BFDF760FB0E460546204A214BAD
:103C4000FCF792FF0C22FDF727FBFDF7B1F984B2D8
:103C50003846FDF751FB02460092334601912A4651
:103C600019A000F0ADF801204003204304F0CCF986
:103C7000FEBD000000000020C80100200000404000
:103C80005761726E696E673A205667735F5065615F
:103C90006B206578636565642033562C20637572EC
:103CA00072656E742076616C75653A20252E3266D9
:103CB0002C2053657420746F20330D0A000000001F
:103CC0006666666666660A400D0A41646A757374C4
:103CD0005F5667735F5065616B3A205667735F503C
:103CE00065616B203D20252E34662C2054203D201C
:103CF000252E32660D0A0000F0B50546FF20C005EE
:103D00008DB0C54202D21948854203DD0020C04370
:103D10000DB0F0BD164A06AB07CA07C314491822F6
:103D20000C316846FCF796FA05246E46A700F15957
:103D3000284604F037FC0DD8610006A8415A092036
:103D40000122C00600F08FFBF159284604F056FC12
:103D5000054607E0610006A8415A09200022C00676
:103D600000F081FB641EE1D50020D1E70000FC419A
:103D70001C870008F0B5114A89B007CA06AB07C313
:103D80000E4918220C316846FCF764FA00252C46CF
:103D900006AE6F466000315A0920C00600F05EFB97
:103DA000012805D1A0003958284604F033FB054608
:103DB000641C062CEEDB284609B0F0BD40870008E5
:103DC0000FB400B599B01BAB642168461A9AFCF792
:103DD000FBFA6846FCF7A8FB82B20023DB43694686
:103DE000034801F0A5FD19B008BC04B01847000055
:103DF000E004002072B6FEE7F8B500250446203442
:103E00000095227D012A39D00122227503689E681F
:103E1000760767D4384F4E68BE424DD09E6A0F7801
:103E2000BA4016439E620123C26A1B079A421FD002
:103E3000012A1DD0022A1BD0032A19D0042A17D028
:103E4000052A15D0062A13D0072A11D002688B68DC
:103E500056697607760FB3420AD05369DB08DB0058
:103E60005361006842690B7A5B075B0F1A4342613A
:103E70000A68102A04D0112A02D038E00220F8BDC6
:103E80001E488368102A07D00122920513438360DD
:103E90000868102803D02AE00122D205F6E7194865
:103EA00017490068FCF7C6FB0A21484300E0401EA2
:103EB00000900028FBD11AE0986A0E78B240904337
:103EC00098620968102901D0112910D10B48826825
:103ED000102904D0012189058A43826007E001216D
:103EE000C905F9E7816B2022114381630125002078
:103EF00020752846F8BD0000011000000027014091
:103F000040420F00700000200068006C7047000005
:103F1000F8B500260446002805D0A06B25462035BC
:103F2000002802D007E00120F8BD0020E0632875DA
:103F3000204600F0A9F8A06B1022C006002870DB14
:103F40002068816849076CD4A16B1301994302234F
:103F50001943A16381688907890F012905D1016887
:103F6000C9070FD1C16809040CD4C168182399434B
:103F7000A3681943C16020680169636889008908E2
:103F8000194301612068C1683D4B1940C160207E22
:103F9000617E8003C9030843A17E4B031843A36AD3
:103FA000012B02D001231B0300E000231843E36828
:103FB00018432369022B09D0002318432B79E57E8F
:103FC0005B0018430123012D02D00AE00423F4E72B
:103FD000002927D0A16B20252943A163E16B194358
:103FE000E163E1690D46FF3DC23D02D0256A2943E8
:103FF00008432168CD680543CD600125E16A2D079E
:10400000A94213D0012911D002290FD003290DD0C4
:1040100004290BD0052909D0062907D0072905D086
:1040200010E028E0012109040843DAE721684D691E
:10403000ED08ED004D6121684D69A78D7F077F0F69
:104040003D434D612168C9680E4D2940814207D129
:104050000020E063A06B80088000401CA06308E0A3
:10406000A06B022188431043A063E06B1843E06318
:1040700001263046F8BDA06B1043A063F8E70000AE
:104080001902FEFFE7FF3F8310B586B004461421F6
:104090006846FCF789FA10492068884219D10F4810
:1040A000826941150A43826182690A400592426928
:1040B00009020A43426140690840059004200090CB
:1040C000032001900020029009206946C00600F0FC
:1040D000F3F806B010BD00000024014000100240BB
:1040E000F8B504464069254620350E4608280BD011
:1040F0002068C068C00709D0A06B20210843A063D6
:10410000002028750120F8BD082700E00C2700F0EA
:10411000B1F9009015E0701C13D0002E05D000F00E
:10412000A9F90099401AB0420BD9206800683842BA
:1041300007D1A06B04210843A06300202875032049
:10414000F8BD206800683842E5D0A06B0121490223
:104150000843A0632068C16809058A0F0C21002A62
:104160001AD1A27E002A17D10268120714D58268DC
:1041700053070122002B08DB43688B434360A06B8D
:10418000130298431043A06306E0A06B202318435A
:10419000A063E06B1043E063207E002801D120681B
:1041A00001600020F8BD000070B5044621680020C1
:1041B0008968490721D425462035297D01291CD04D
:1041C00001212975617E012904D02046FFF7C4FB37
:1041D000002811D1A16B0A4A1140FF22013211437C
:1041E000A1630021E163297522681C211160216807
:1041F0008A6804231A438A6070BD022070BD0000E3
:10420000FEF1FFFF30B5014620314B780022022B32
:1042100004D0042383630A70012030BD03681C6846
:104220000E25AC431C6003681C68640864001C60B5
:104230000123056C1C46C06BAC4044604B700A7097
:10424000002030BD70B50024014620314A78022A92
:1042500003D004218163012416E0026813680E254F
:10426000AB431360026813685B085B0013600122B4
:10427000056C1346AB40C56B6B604A7000220A7038
:10428000416B002900D08847204670BD203040781F
:104290007047000070B5044600F0ECF80546601C5D
:1042A00002D004480078241800F0E4F8401BA04233
:1042B000FAD370BD64000020F8B500230324012563
:1042C000BAE02E469E40B44632407CD00E79B60706
:1042D000B60F012E01D0022E17D186682746B646AA
:1042E0005E00B74000967646BE43B646CF68009E55
:1042F000B74076463743876046686746BE430F79C6
:10430000FF06FF0F9F40374347600E79F643B6071D
:104310000ED0C6682746B4465E00B646B74066462D
:10432000BE43B4468F687646B74066463743C7609B
:104330000E79B607B60F022E14D1DE08B600361875
:104340000096366A5F07B446FE0E0F27B646B740A2
:104350006646BE43B4460F697646B7406646374365
:10436000009E376206682746B4465E00B646B740F0
:104370006646BE430F79B446BF07BF0F7646B740C7
:104380006646374307604E68B603B60F53D02D4FCD
:10439000BE692E43BE61BE699F08F607F60F2A4E1E
:1043A000BF00BE190096B6680F27B4469E07360FA9
:1043B000B646B7406646BE430927FF06B446B84234
:1043C00002D1002710E036E0204FB84201D101278A
:1043D0000AE01F4FB84201D1022705E01D4FB84245
:1043E00001D1032700E005277646B74066463743EC
:1043F000009EB760184E36684F689643FF0300D59D
:104400001643154F3E607E684F689643BF0300D544
:104410001643114F7E60BE684F689643FF0200D579
:1044200016430D4FBE60FE684F689643BF0200D52D
:104430001643094AD6605B1C0A681646DE4000D067
:104440003FE7F8BD001002400000014000040048B2
:1044500000080048000C00480004014000690840C2
:1044600000D001207047002A01D08161704781622D
:104470007047000001488068704700006400002019
:1044800070B5024640325378202B1CD11378012B93
:1044900019D00123137024245470046825689D43A7
:1044A0002560046825681E03B543256004682568F7
:1044B0000D43256000680168194301602020507099
:1044C0000020107070BD022070BD70B502464032F1
:1044D0005378202B1BD11378012B18D00124147092
:1044E0002423537003681D68A5431D6005682B686D
:1044F0000F263602B3430902194329600068016898
:1045000021430160202050700020107070BD0220F7
:1045100070BD7047F8B507460E46492003F016F8FF
:10452000FCF714FF1B4C2074482003F00FF8FCF735
:104530000DFF60743000184D184C194E05D060788E
:104540007F2812D0782816D01CE02078002804D0CC
:10455000124901223346491C03E06078334629188A
:104560000122384600F000FAF8BD0A49012233461C
:104570001031384604E007493346012211313846EC
:1045800000F058FA6078334629180122384600F0C6
:1045900051FAF8BDC002002080020020580000201F
:1045A0000000000170B503689A691968D243D40508
:1045B00008D4CC43240605D4446C01252C43446420
:1045C0002C02DC61530509D4CB431B0606D4436C93
:1045D000082423434364E3010468E361920509D49A
:1045E000C943090606D4416C0222114341641102F9
:1045F0000268D161416C0B22114201D001F0CAFA6C
:1046000070BD026891691268436B002B00D0184797
:104610007047000010B5014640314A78202A01D089
:10462000022010BD28224A70034941630121C903B9
:1046300001F032FA002010BD5962000810B500F0F8
:1046400009F8042803D102484178491E417010BD81
:1046500058000020406C704770B5040006D0254615
:10466000403568780026002802D005E0012070BDA2
:104670002E70204600F0E0F8242068702068016861
:104680004908490001600F216068090688432168D4
:10469000086121688A680120C00382438A60E1685A
:1046A0000129A16808D02122920211432268916059
:1046B000E168022902D005E00143F7E70121226801
:1046C000C902516021684A680F4B1A434A60216849
:1046D000CA688243CA60616920690843A169090206
:1046E00008432168C860216AE069084321680860BE
:1046F000206801680122114301606664202068700F
:104700002663AE70002070BD0080000210B5034A21
:1047100001211170FFF77EFF10BD0000580000203E
:1047200070477047FFB5054604464035687881B04C
:10473000202878D12878012875D001202870FFF72B
:1047400099FE0746012200901923D103204601F06B
:1047500042FE00283CD1222068701020A87000265C
:10476000666403986062049860856663618D2F4873
:10477000FF2903D9FF22228500903BE0618D21852E
:1047800000903DE02046029901F0FEFD16E001F0A8
:1047900049FE00281CD12068406A616A0870606A7E
:1047A000401C6062208D401E81B22185608D401EBC
:1047B0006085608D002801D000290CD0608D0A9999
:1047C00000283A462046E2D101F06CFE00281CD0B9
:1047D000012005B0F0BD00970022802120460A9BF1
:1047E00001F0F9FD0028F3D1608DFF2805D9FF22E3
:1047F0002285009601231B06C4E7608D2085009664
:10480000208D0123C2B25B06BCE721682020C8616D
:1048100021684A68064B1A404A606870AE702E7074
:104820000020D6E7FFE70220D3E700000024008045
:1048300000E800FE7047704770B586B0044614214A
:104840006846FBF7B1FE224E2568224CC022122397
:1048500001200321B54218D1666985042E436661A3
:10486000666902902E400596039104900193009290
:1048700069461948FFF720FDE169E8000143E1615D
:10488000E1690140059106B070BD144EB542FAD100
:1048900066690125AD052E436661666903912E4068
:1048A000059602900193009269460D48FFF704FDBA
:1048B000E0692843E061E069002228400590114644
:1048C000182000F079F9182000F06AF9DBE7000001
:1048D000005400400010024000040048005800400E
:1048E0000014004870B5154C06462078002801D009
:1048F000002020706178124D932904D090290ED0A9
:1049000091290FD010E0685C002802D0012802D065
:104910000AE0012000E0002002F07CFF04E0685C77
:10492000606001E0685CA0606078012329181B06C4
:104930000122304600F018F870BD00005800002039
:104940008002002010B5064A012351781B06491C3D
:10495000C9B25170034A5118012200F06BF810BD22
:104960005800002080020020FFB505460F46403564
:10497000697881B0164604462820884313D1002F59
:104980000ED0002E0CD02849204601F05BF8287884
:1049900001280BD0012028706878292808D021E050
:1049A000012040026064012005B0F0BD0220FBE759
:1049B0000121204601F046F820680168490411D51C
:1049C00001680122920391430160A06B002809D085
:1049D00016494163A06BFFF735FC002802D0A06B9D
:1049E000416B88472A2068702020A87000206064EE
:1049F00021684A680123DB039A434A60676266853F
:104A0000618D21850499E1620949616321688A69A0
:104A1000D20301D40822CA6128700349204601F05C
:104A20003BF80020C0E7000002800000295A00087F
:104A300059620008FFB505460F464035697881B0D8
:104A4000164604462820884313D1002F0ED0002E8E
:104A50000CD02949204600F0F5FF287801280BD01A
:104A60000120287068782A2808D021E0012040021F
:104A70006064012005B0F0BD0220FBE70221204662
:104A800000F0E0FF20680168090411D502680121E7
:104A9000C9038A430260E06B002809D017494163CB
:104AA000E06BFFF7CFFB002802D0E06B416B88473B
:104AB000292068702020A8700020606421684A685E
:104AC0000123DB039A434A6067626685618D218515
:104AD0000499E1620A49616321688A69120CD2076C
:104AE000D20F01D00822CA6128700349204600F085
:104AF000D3FF0020BEE7000001800000295A000813
:104B000059620008024881680278891881607047FC
:104B10006400002010B506480168102211430160AE
:104B2000002000F007F800F027F8002010BD00007A
:104B30000020024070B504460D4D7D202978C0004C
:104B4000FBF778FD01460B480068FBF773FD00F0AA
:104B5000C3FC002809D1042C07D200222146401EA4
:104B600000F02AF800206C6070BD012070BD0000CC
:104B7000640000207000002008B508488169012207
:104B800011438161816911400091C26901040A43A6
:104B9000C261C0690840009008BD000000100240DA
:104BA000002805DBC106C90E0120884001490860C4
:104BB0007047000000E100E010B503F071F910BD8E
:104BC000F8B505460068354CC00352D5E0690026AB
:104BD000C00007D4E16920040143E161E1690140BB
:104BE000012600912E480168C90510D4016882157C
:104BF00011430160FFF73EFC074604E0FFF73AFC73
:104C0000C01B642824D826480068C005F6D5206A51
:104C100003273F02384020D06968394081421CD0C8
:104C2000206A226AB843012109040A432262226AE7
:104C30008A4322622062C0070FD0FFF71BFC00905E
:104C400008E0FFF717FC0099411A1648814201D984
:104C50000320F8BD206A8007F3D5206A6968B8434D
:104C600008432062002E04D0E1690120000781433F
:104C7000E1612878C00705D0206BA9688008800012
:104C8000084320632878800605D5206B10218843CF
:104C9000E968084320630020F8BD000000100240CE
:104CA0000070004088130000F8B50F46060059D088
:104CB0003A4D2868C007C00FB84209D2286840089A
:104CC0004000384328602868C007C00FB84249D167
:104CD0003068334C81070CD5400704D56068072144
:104CE0000902084360606068F0218843B1680843A6
:104CF00060603078C00726D0706801280ED0216827
:104D000002280ED0890700292CDA616889088900F9
:104D100001436160FFF7AEFB00900DE0216889035D
:104D2000F1E78901EFE7FFF7A5FB0099411A1D485C
:104D3000814201D90320F8BD60680C2108407168E8
:104D400089008842EFD12868C007C00FB8420BD94C
:104D5000286840084000384328602868C007C00F12
:104D6000B84201D00120F8BD3078400706D5606810
:104D7000072109028843F1680843606000F028F8C1
:104D80006168094A0906090F515CC8400749086073
:104D90000020FFF7CFFE0020F8BD000000200240F9
:104DA0000010024088130000648700087000002093
:104DB0000448054900684968044A4905490F515C9F
:104DC000C84070477000002000100240748700083F
:104DD00010B514A30FCB88B06C460FC415A30FCB2E
:104DE0000FC4184A51680C200B4603401648042B88
:104DF00016D0082B14D18B021B0F6C46E45CD26AD0
:104E000004AB1207120F9A5CC90305D5002319469B
:104E1000FBF758FA214601E020460C4903F012F84E
:104E200008B010BD02030405060708090A0B0C0DA3
:104E30000E0F10100102030405060708090A0B0CE7
:104E40000D0E0F100010024000127A0000093D0004
:104E5000FEB5040070D02078DC4DC0074AD06868E9
:104E60000007800F012807D068680007800F02281C
:104E700009D16868C00306D5286880033AD5606800
:104E80000028E7D036E06168012914D001208004B1
:104E9000002901D0052914D02A68012109048A4378
:104EA0002A602968814329606068002816D0FFF7CE
:104EB000E1FA06460EE0286801210904084328604B
:104EC000F2E7296801432960F5E7FFF7D3FA801B71
:104ED00064286ED828688003F7D50BE0FFF7CAFA7C
:104EE000064604E0FFF7C6FA801B6428F1D828685C
:104EF0008003F7D420780126800700283CDA686810
:104F00000007800F07D068680007800F022809D1CA
:104F10006868C00306D42868800716D5E0680128B1
:104F20000AD112E0E0680028286816D030432860D3
:104F3000FFF7A0FA074605E043E1FFF79BFAC01B25
:104F40000228C6D828688007F7D52868F821884342
:104F50002169C900084328600EE04008400028602D
:104F6000FFF788FA074604E0FFF784FAC01B02281F
:104F7000AFD828688007F7D42078000722D5E069E9
:104F80000028686A0ED030436862FFF773FA07465C
:104F900004E0FFF76FFAC01B02289AD8686A8007FE
:104FA000F7D50FE0400840006862FFF763FA074654
:104FB00005E09DE0FFF75EFAC01B022889D8686A09
:104FC0008007F7D4207804274007002860DA002003
:104FD0000190E869C00008D4E969B8060143E961B5
:104FE000E969014001200091019079480168C905F3
:104FF00011D40168821511430160FFF73BFA00905C
:1050000005E0FFF737FA0099401A642870D8704815
:105010000068C005F5D5A06801280AD0002801D095
:10502000052810D0286A400840002862286AB84342
:1050300001E0286A30432862A068002812D0FFF7F8
:1050400019FA00900AE0286A38432862F1E7FFF76E
:1050500011FA0099411A5F48814249D8286A8007AD
:10506000F5D50DE0FFF706FA009006E0FFF702FA2B
:105070000099411A574881423AD8286A8007F5D4E6
:105080000198002804D0E969012000078143E96103
:105090002078C00635D5606901280CD0401D686BAA
:1050A00023D038436863686B400840006863FFF7AB
:1050B000E1F9064622E0686B38436863686B304369
:1050C0006863FFF7D7F9064604E0FFF7D3F9801BC2
:1050D00002285BD8686B8007F7D5686BF821884396
:1050E000A169C900084368630BE0B8436863F4E74B
:1050F0004CE0FFF7BFF9801B022847D8686B800798
:10510000F7D4206A00285ED069680907890F022950
:1051100042D0012636060228286805D0B043286010
:10512000FFF7A8F9044633E0B0432860FFF7A2F97F
:10513000074604E0FFF79EF9C01B022826D828681E
:105140008001F7D4E86AE16A000900010843E862D7
:10515000616AA06A084369683D22120491430843CA
:105160006860286830432860FFF784F9044604E04B
:10517000FFF780F9001B022808D828688001F7D5BE
:1051800021E0FFF777F9001B022801D90320FEBDBB
:1051900028688001F5D416E00128F8D06868E96A2B
:1051A00001221204636A02409A420AD10907E26AA4
:1051B000090F914205D10F2189040840A16A884254
:1051C00001D00120FEBD0020FEBD00000010024005
:1051D0000070004088130000F8B504000CD0606A2D
:1051E000002500280AD02561656126464036A56263
:1051F000707F002808D00BE00120F8BD6168C81F4F
:10520000FD38F2D0E561F0E73577204600F05CF834
:1052100002227277206801684023994301600723C6
:10522000E1681B02994201D9002001E0012000033E
:105230000F273F02B94202D0994200D0A562FF2356
:105240006168053319402127A368BF023B40194319
:1052500023691340227D1943D207D20F1143012342
:10526000A2695B021A401143E26938231A401143D4
:10527000226A80231A401143A26A9B011A401143FB
:1052800022681160A1690422090C1140626A10238E
:105290001A401143626B08231A4011430F23E2683E
:1052A0001B021A40114301221203104001432068DF
:1052B00041602068C16952109143C1612566012097
:1052C00070770020F8BD0000F0B587B004461421C7
:1052D0006846FBF769F9244B226801210024234822
:1052E000890402250326224F9A4220D18369821421
:1052F0001343836183691340059343694A10134341
:10530000436143691340059342690A43426140691E
:10531000029408400590C810009009206946039641
:1053200001950494C006FEF7C7FF282011E0114B39
:105330009A4217D1C36912141343C361C36913405E
:10534000059342690A4342614069084005900B2079
:105350000003009002946946039601950494384630
:10536000FEF7AAFF07B0F0BD003001400010024078
:105370000004004800380040FFB5054604464035AB
:10538000287F002781B01646012809D00120287700
:10539000FFF770F80090687F012804D0022795E09D
:1053A000022005B0F0BD0298002872D0002E70D007
:1053B00003206877002020660299A163A687E6870C
:1053C0002064A880E8802065E0640122A068D20300
:1053D0004021904208D1206802688A430260206818
:1053E00002680B021A43026020680268520602D467
:1053F00002680A4302600721E06809028842606887
:1054000026D9002801D0012E1ED1A06B216800886A
:10541000C86006E020688168890709D5A16B098802
:10542000C160A06B801CA063E08F401EE0870BE092
:10543000FFF720F80099411A0498814202D3401CDA
:1054400002D039E0002837D0E08F0028E2D126E0F2
:10545000002801D0012E1FD1A06B216800780873AD
:1054600006E020688168890709D5A16B0978017376
:10547000A06B401CA063E08F401EE0870CE0FEF7AD
:10548000F9FF0099411A0498814203D3401C03D0CC
:1054900012E01AE000280FD0E08F0028E1D120466A
:1054A000009A049902F088F8002801D02020206694
:1054B000A068002802D005E0032707E02068C16843
:1054C00080680090206E002800D0012701206877B6
:1054D00000202877384664E7094910B5401E884205
:1054E00001D9012010BD074C60610321081F02F0A3
:1054F000D7FC0020A06107202061002010BD000023
:10550000FFFFFF0000E000E070477047F8B5026859
:105510000446D069116896689C4B05461D402023BF
:10552000002D75D0F7079A4DFF0FBC460D402F4355
:105530006DD02546C7078035002F06D0CF0504D58E
:10554000012717622A683A432A60820708D5F207C2
:1055500006D0276802223A622A6804273A432A6062
:10556000420708D5F20706D02668042232622A686C
:10557000022632432A6002070AD50A461A406646C6
:10558000324305D02668082232622E6816432E6008
:10559000020508D54A0106D501222668D2023262E8
:1055A0002A681A432A602A68002A39D0800606D55C
:1055B000880604D5616E002901D0204688472868F6
:1055C00021688968490602D4282108422DD0204646
:1055D00002F006FA21688868400622D5EFF31080B1
:1055E000012282F310888B68402293438B6080F302
:1055F0001088206F002814D066494163206FFEF7A1
:1056000021FE00280CD0206F416B08E000E012E082
:10561000850610D58D060ED5616E9DE02046884723
:10562000F8BD2046FFF771FFF8BD2046FFF76DFF7C
:1056300000202860F8BD256E012D7DD1C5067BD5E3
:10564000CD0679D510261662226890682546400658
:105650004035002845DA216F086840680004000CD6
:10566000E8D02F8B8742E5D968838869202833D01A
:10567000EFF31080012181F3108811683701B943DD
:10568000116080F31088EFF31080012181F31088FE
:1056900021688A68520852008A6080F31088EFF30C
:1056A0001080012181F3108821688A684027BA435D
:1056B0008A6080F31088E36700202066EFF3108093
:1056C000012181F3108821680A68B2430A6080F3DF
:1056D0001088206FFEF796FD288B698B401A81B2E7
:1056E00031E0288B698B401A81B2688B0028A1D0E9
:1056F00000299FD0EFF31080012585F310881568ED
:10570000FF272137BD43156080F31088EFF3108029
:10571000012282F31088226895686D086D009560FB
:1057200080F31088E367002020666066EFF3108046
:10573000012282F3108800E009E022681368B34375
:10574000136080F310882046FFF7DEFEF8BD0506E3
:1057500006D50D0604D5A16E002900D05EE7F8BD80
:105760004006FCD54806FAD52046EFF31081012407
:1057700084F3108814684025AC43146081F31088CA
:1057800083670021816600F03CF9F8BD0F08000036
:1057900020010004CD79000810B5040003D0A06FEB
:1057A000002802D007E0012010BD0021742001551F
:1057B000204600F027F82420A067206801684908E7
:1057C00049000160204602F0E3F90128ECD0606A4C
:1057D000002802D0204602F061F8206841680122CA
:1057E000D202914341602068816808229143816020
:1057F00020680168012211430160204602F0B4F8DC
:1058000010BD000010B586B0044614216846FAF7B2
:10581000CBFE17492068884227D1164882690121AA
:1058200089030A43826182690A4005924269C9007C
:105830000A434261406908400590032040020090FD
:105840000220019000200290032003900120049088
:1058500009206946C006FEF72FFD012200211B200A
:10586000FFF7AAF91B20FFF79BF906B010BD000057
:10587000003801400010024070B5C36F202B2BD1BF
:1058800000290BD0002A09D0012483682403A342F5
:1058900006D10369002B03D1CB0701D0012070BDD5
:1058A000034660331C7D012C16D001241C75002397
:1058B0000366046863681B020BD5EFF310830125B0
:1058C00085F3108825680126B6063543256083F3E5
:1058D000108802F0F7F970BD022070BD70B5006845
:1058E0000F49884215D10F4C0025217820460E4AD9
:1058F00040880D290ED00A290CD01154401C80B2CA
:105900006080642800D36580012206490748FFF7BC
:10591000B3FF70BD1554044800F068FFF3E70000C2
:10592000003801400000002074000020E004002046
:10593000FFB50446806F83B017460D4620285ED120
:10594000002D0AD0002F08D0A168C001814207D1E4
:105950002069002804D1E80702D0012007B0F0BD7B
:10596000204660300090007D012848D00098012139
:1059700001750020802108512120A067FEF77AFDE3
:10598000264640360190378277820120A1680003C5
:10599000814202D12069002805D02F4600250099B8
:1059A0000020087511E00027F9E700228021204639
:1059B00002F0D6F9002815D1002F15D021683878CB
:1059C00008857F1C708A401E7082708A019B0028A7
:1059D00006980090E9D100224021204602F0C0F94B
:1059E000002808D00320B9E728882168C005C00D29
:1059F0000885AD1CE6E72020A0670020AEE7022066
:105A0000ACE77047FEE7000010B506480068806903
:105A10004005400F034802D0FEF7C4FD10BDFEF75D
:105A2000F0FD10BDCC03002010B5406A0021826B50
:105A3000002A00D05163C26B002A00D0516300F0ED
:105A4000B7FC10BDF0B504460022CE074034282331
:105A5000B025002E05D0667842221F46B74300D0FD
:105A6000F2228E0705D5442664783243A34300D042
:105A70002A43CB0B01D0B8231A43102908D0202980
:105A800007D0402905D00068016891430160F0BD4E
:105A900090210A43F7E7000010B5144C436B002235
:105AA000A34202D0124CA3420ED1CB0B00D0B8229D
:105AB000102904D0202904D0402903D011E09021DE
:105AC00000E060210A430CE0CB0B00D0B822CB07EA
:105AD00001D0F2231A438B0701D5F4231A4320295E
